:020000040800F2
:1000000000200020090200085902000859020008D7
:1000100000000000000000000000000000000000E0
:10002000000000000000000000000000590200086D
:1000300000000000000000005902000859020008FA
:100040005902000859020008590200085902000824
:100050005902000859020008590200085902000814
:100060005902000859020008590200085902000804
:1000700059020008590200085902000859020008F4
:100080005902000859020008000000005902000847
:1000900059020008590200085902000859020008D4
:1000A00059020008590200085902000859020008C4
:1000B000590200080000000059020008000000007A
:0400C0005FF808F1EC
:1000C40070B50D4D0D4E761BB610002E05D00024D4
:1000D40008CD01349847A642FAD800F017FB084D22
:1000E400084E761BB610002E05D0002408CD01342E
:1000F4009847A642FAD870BD000000000000000036
:10010400000000000000000070B5041C830716D135
:1001140023680E4D5A190E4D9A432A420FD10430CA
:1001240003680A4E9A199A432A4208D10430036894
:10013400064E9A199A432A42F1D000E0013003781E
:10014400002BFBD100F006F8201C70BDFFFEFEFE64
:1001540080808080031C0A7801311A700133002AE0
:10016400F9D17047002934D00123002210B4884209
:100174002CD301242407A14204D2814202D20901D2
:100184001B01F8E7E400A14204D2814202D24900F3
:100194005B00F8E7884201D3401A1A434C08A04296
:1001A40002D3001B5C0822438C08A04202D3001B2C
:1001B4009C082243CC08A04202D3001BDC08224343
:1001C400002803D01B0901D00909E3E7101C10BC67
:1001D4007047002801D00020C04307B4024802A1A0
:1001E4004018029003BDC046190000000029F0D059
:1001F40003B5FFF7B9FF0EBC4243891A1847C0463E
:100204007047C0460D488546002103E00C4B5B58FF
:10021400435004310B480C4B42189A42F6D30B4A14
:1002240002E0002313600432094B9A42F9D300F030
:10023400F5F9FFF745FF00F09BF8FEE700200020EA
:100244002807000800000020000000200000002013
:1002540088000020FEE700B583B00190019B5A1E80
:100264000192002BFAD103B000BD000030B5021C8E
:100274001C230D1CDD400F242C40054D043B2C5D3C
:10028400147001321C1DF4D10023037230BDC0462A
:10029400D006000800B5094A1368013313609A03B5
:1002A40009D15A0303D59023DB05054A02E09023C4
:1002B400044ADB059A61002000BDC046000000200E
:1002C4000002000400040002F0B59DB00190002576
:1002D400204C0027204903AE2770201CFFF714FF91
:1002E400291C301CFFF7C2FFC11D201CFFF70CFFA7
:1002F4001A49201CFFF708FF194BAA00D158301CDB
:10030400FFF7B4FF011C201CFFF7FEFE1549201C5B
:10031400FFF7FAFE01350198211C00F055F9032D71
:10032400D6D12770201C1049FFF7EEFE0F4B301C6E
:100334001988FFF79BFF011D201CFFF7E5FE201C19
:100344000849FFF7E1FE0198211C00F03DF91DB0BA
:10035400F0BDC0460C000020E4060008E9060008D1
:10036400ACF7FF1F04070008EC060008CCF7FF1FDA
:10037400F0B5474BC0225969D2020A439024E405E0
:100384005A612268434E802532406D052A4322601B
:100394000022A280C0229205A26021683E4A9BB03E
:1003A40011408022D2020A43226021683B4A022083
:1003B4001140802252030A432260D96980229202AA
:1003C4000A43DA6100F08CF8E12212023449022077
:1003D40000F0A0F80220012100F0B0F82368002109
:1003E4001E402660226880239B0513432360626AB3
:1003F4002C4B2D4813406362626A80235B041343D1
:1004040063622268294B13402360226880231B0601
:1004140013432360626A264B13406362636A1D437D
:10042400656200F0F1F8022000F067F8022021492B
:1004340000F0CAF80220FFF747FF0520FFF70BFF83
:100444001D4C002323701D490137201CFFF75CFE5F
:10045400391C01A8FFF70AFF011C201CFFF754FEFA
:100464001749201CFFF750FE0220211C00F0ACF8B5
:10047400201C1449FFF76EFE022000F089F80D28B5
:1004840001D00A28F8D102200E4900F09DF8D4E7E3
:1004940000100240FFFFFFCFFFFFF3FFFFFFCFFF7E
:1004A400006CDC02FFFFFFF099020008FFFFFF3F32
:1004B400FFFFFF0FF50600080C00002007070008E7
:1004C4000D0700080407000800B5012801D0024800
:1004D40000E0024800BDC04600440040003801402E
:1004E40008B5FFF7F1FF0023036043608360838155
:1004F400038243610383036208BD08B5FFF7E4FF89
:10050400026801231343036002680C23134303604E
:1005140008BD000070B5161C0D1CFFF7D5FF311C7B
:10052400041C281CFFF71EFE2268034B13402360A3
:1005340083B2A38170BDC046FF7FFFFF10B50C1CC2
:10054400FFF7C2FF0368012293430360012C07D025
:10055400002C02D0022C15D10BE002680A4B06E0F5
:100564000268A0235B01134303600268074B134036
:1005740007E00268A0235B01134303600268034B96
:100584001343036010BDC046FFEBFFFFFFFDFFFFF9
:1005940010B5FFF799FF041C09E0002B09D0084AA5
:1005A40010689847002802D00120404206E0054B1D
:1005B4001B68E2699106F0D5A08CC0B210BDC0469C
:1005C400080000200400002038B50D1CFFF77CFF54
:1005D400041C0EE0002B06D0094A10689847002836
:1005E4000DD1084B1B68E2691106F3D52B78013550
:1005F40023852B78002BF4D1E3691A06FCD538BD8A
:100604000800002004000020024B1860024B19600F
:100614007047C046040000200800002010B5244B99
:1006240001211A680F240A431A605868214A0240BB
:100634005A601868204A02401A6018681F4A02402B
:100644001A6058681E4A10405860D86AA043D8629D
:100654001C6B1C4820401863586B88430021586366
:10066400996019491120086059685960596859609E
:1006740059680A405A605968A02292030A435A6092
:100684001968802252040A431A60094B1A689101BE
:10069400FBD55A6803218A435A60596802220A43E7
:1006A4005A60034B5A680C231340082BF9D110BD30
:1006B400001002400CB8FFF8FFFFF6FEFFFFFBFF3F
:1006C400FFFFC0FFACFEFFFF002002403031323399
:1006D400343536373839616263646566000000007A
:1006E40055494420003A20004D454D53495A452070
:1006F400000D0A48656C6C6F2C20776F726C642156
:100704000D0A004C696E652000202000F8B5C04633
:10071400F8BC08BC9E467047F8B5C046F8BC08BC97
:040724009E46704736
:0400000508000209E4
:00000001FF
